{
  "contractName": "Election",
  "abi": [
    {
      "inputs": [
        {
          "internalType": "string",
          "name": "_name",
          "type": "string"
        }
      ],
      "payable": false,
      "stateMutability": "nonpayable",
      "type": "constructor"
    },
    {
      "anonymous": false,
      "inputs": [],
      "name": "electionEvent",
      "type": "event"
    },
    {
      "anonymous": false,
      "inputs": [
        {
          "indexed": true,
          "internalType": "uint256",
          "name": "_candidateId",
          "type": "uint256"
        }
      ],
      "name": "votedEvent",
      "type": "event"
    },
    {
      "constant": true,
      "inputs": [],
      "name": "accountOwner",
      "outputs": [
        {
          "internalType": "address",
          "name": "",
          "type": "address"
        }
      ],
      "payable": false,
      "stateMutability": "view",
      "type": "function"
    },
    {
      "constant": true,
      "inputs": [
        {
          "internalType": "uint256",
          "name": "",
          "type": "uint256"
        }
      ],
      "name": "candidates",
      "outputs": [
        {
          "internalType": "uint256",
          "name": "id",
          "type": "uint256"
        },
        {
          "internalType": "string",
          "name": "name",
          "type": "string"
        },
        {
          "internalType": "uint256",
          "name": "voteCount",
          "type": "uint256"
        },
        {
          "internalType": "uint256",
          "name": "age",
          "type": "uint256"
        },
        {
          "internalType": "string",
          "name": "position",
          "type": "string"
        }
      ],
      "payable": false,
      "stateMutability": "view",
      "type": "function"
    },
    {
      "constant": true,
      "inputs": [],
      "name": "candidatesCount",
      "outputs": [
        {
          "internalType": "uint256",
          "name": "",
          "type": "uint256"
        }
      ],
      "payable": false,
      "stateMutability": "view",
      "type": "function"
    },
    {
      "constant": true,
      "inputs": [],
      "name": "electionInfo",
      "outputs": [
        {
          "internalType": "string",
          "name": "",
          "type": "string"
        }
      ],
      "payable": false,
      "stateMutability": "view",
      "type": "function"
    },
    {
      "constant": true,
      "inputs": [],
      "name": "electionName",
      "outputs": [
        {
          "internalType": "string",
          "name": "",
          "type": "string"
        }
      ],
      "payable": false,
      "stateMutability": "view",
      "type": "function"
    },
    {
      "constant": true,
      "inputs": [
        {
          "internalType": "address",
          "name": "",
          "type": "address"
        }
      ],
      "name": "voters",
      "outputs": [
        {
          "internalType": "bool",
          "name": "",
          "type": "bool"
        }
      ],
      "payable": false,
      "stateMutability": "view",
      "type": "function"
    },
    {
      "constant": false,
      "inputs": [
        {
          "internalType": "string",
          "name": "_name",
          "type": "string"
        },
        {
          "internalType": "uint256",
          "name": "_age",
          "type": "uint256"
        },
        {
          "internalType": "string",
          "name": "_position",
          "type": "string"
        }
      ],
      "name": "addCandidate",
      "outputs": [],
      "payable": false,
      "stateMutability": "nonpayable",
      "type": "function"
    },
    {
      "constant": false,
      "inputs": [
        {
          "internalType": "string",
          "name": "_info",
          "type": "string"
        }
      ],
      "name": "addInfo",
      "outputs": [],
      "payable": false,
      "stateMutability": "nonpayable",
      "type": "function"
    },
    {
      "constant": true,
      "inputs": [],
      "name": "getNumCandidate",
      "outputs": [
        {
          "internalType": "uint256",
          "name": "",
          "type": "uint256"
        }
      ],
      "payable": false,
      "stateMutability": "view",
      "type": "function"
    },
    {
      "constant": false,
      "inputs": [
        {
          "internalType": "uint256",
          "name": "_candidateId",
          "type": "uint256"
        }
      ],
      "name": "vote",
      "outputs": [],
      "payable": false,
      "stateMutability": "nonpayable",
      "type": "function"
    },
    {
      "constant": false,
      "inputs": [],
      "name": "endElection",
      "outputs": [],
      "payable": false,
      "stateMutability": "nonpayable",
      "type": "function"
    }
  ],
  "bytecode": "0x60806040523480156200001157600080fd5b5060405162000ff738038062000ff7833981810160405260208110156200003757600080fd5b81019080805160405193929190846401000000008211156200005857600080fd5b838201915060208201858111156200006f57600080fd5b82518660018202830111640100000000821117156200008d57600080fd5b8083526020830192505050908051906020019080838360005b83811015620000c3578082015181840152602081019050620000a6565b50505050905090810190601f168015620000f15780820380516001836020036101000a031916815260200191505b5060405250505033600460006101000a81548173ffffffffffffffffffffffffffffffffffffffff021916908373ffffffffffffffffffffffffffffffffffffffff16021790555080600590805190602001906200015192919062000159565b505062000208565b828054600181600116156101000203166002900490600052602060002090601f016020900481019282601f106200019c57805160ff1916838001178555620001cd565b82800160010185558215620001cd579182015b82811115620001cc578251825591602001919060010190620001af565b5b509050620001dc9190620001e0565b5090565b6200020591905b8082111562000201576000816000905550600101620001e7565b5090565b90565b610ddf80620002186000396000f3fe608060405234801561001057600080fd5b50600436106100a95760003560e01c8063674ddb5311610071578063674ddb53146102e75780636c74bf6d1461033157806385e8e7a7146103b4578063a3ec138d14610437578063d02cf3cf14610493578063e74f9252146104b1576100a9565b80630121b93f146100ae5780630bf803e4146100dc5780632d35a8a2146101975780633477ee2e146101b557806359f78468146102dd575b600080fd5b6100da600480360360208110156100c457600080fd5b810190808035906020019092919050505061060d565b005b610195600480360360208110156100f257600080fd5b810190808035906020019064010000000081111561010f57600080fd5b82018360208201111561012157600080fd5b8035906020019184600183028401116401000000008311171561014357600080fd5b91908080601f016020809104026020016040519081016040528093929190818152602001838380828437600081840152601f19601f820116905080830192505050505050509192919290505050610786565b005b61019f6107fa565b6040518082815260200191505060405180910390f35b6101e1600480360360208110156101cb57600080fd5b8101908080359060200190929190505050610800565b604051808681526020018060200185815260200184815260200180602001838103835287818151815260200191508051906020019080838360005b8381101561023757808201518184015260208101905061021c565b50505050905090810190601f1680156102645780820380516001836020036101000a031916815260200191505b50838103825284818151815260200191508051906020019080838360005b8381101561029d578082015181840152602081019050610282565b50505050905090810190601f1680156102ca5780820380516001836020036101000a031916815260200191505b5097505050505050505060405180910390f35b6102e5610966565b005b6102ef6109ee565b604051808273ffffffffffffffffffffffffffffffffffffffff1673ffffffffffffffffffffffffffffffffffffffff16815260200191505060405180910390f35b610339610a14565b6040518080602001828103825283818151815260200191508051906020019080838360005b8381101561037957808201518184015260208101905061035e565b50505050905090810190601f1680156103a65780820380516001836020036101000a031916815260200191505b509250505060405180910390f35b6103bc610ab2565b6040518080602001828103825283818151815260200191508051906020019080838360005b838110156103fc5780820151818401526020810190506103e1565b50505050905090810190601f1680156104295780820380516001836020036101000a031916815260200191505b509250505060405180910390f35b6104796004803603602081101561044d57600080fd5b81019080803573ffffffffffffffffffffffffffffffffffffffff169060200190929190505050610b50565b604051808215151515815260200191505060405180910390f35b61049b610b70565b6040518082815260200191505060405180910390f35b61060b600480360360608110156104c757600080fd5b81019080803590602001906401000000008111156104e457600080fd5b8201836020820111156104f657600080fd5b8035906020019184600183028401116401000000008311171561051857600080fd5b91908080601f016020809104026020016040519081016040528093929190818152602001838380828437600081840152601f19601f820116905080830192505050505050509192919290803590602001909291908035906020019064010000000081111561058557600080fd5b82018360208201111561059757600080fd5b803590602001918460018302840111640100000000831117156105b957600080fd5b91908080601f016020809104026020016040519081016040528093929190818152602001838380828437600081840152601f19601f820116905080830192505050505050509192919290505050610b7a565b005b6000803373ffffffffffffffffffffffffffffffffffffffff1673ffffffffffffffffffffffffffffffffffffffff16815260200190815260200160002060009054906101000a900460ff161561066357600080fd5b600460009054906101000a900473ffffffffffffffffffffffffffffffffffffffff1673ffffffffffffffffffffffffffffffffffffffff163373ffffffffffffffffffffffffffffffffffffffff1614156106be57600080fd5b6000811180156106d057506002548111155b6106d957600080fd5b60016000803373ffffffffffffffffffffffffffffffffffffffff1673ffffffffffffffffffffffffffffffffffffffff16815260200190815260200160002060006101000a81548160ff0219169083151502179055506001600082815260200190815260200160002060020160008154809291906001019190505550807ffff3c900d938d21d0990d786e819f29b8d05c1ef587b462b939609625b684b1660405160405180910390a250565b600460009054906101000a900473ffffffffffffffffffffffffffffffffffffffff1673ffffffffffffffffffffffffffffffffffffffff163373ffffffffffffffffffffffffffffffffffffffff16146107e057600080fd5b80600390805190602001906107f6929190610c85565b5050565b60025481565b6001602052806000526040600020600091509050806000015490806001018054600181600116156101000203166002900480601f0160208091040260200160405190810160405280929190818152602001828054600181600116156101000203166002900480156108b25780601f10610887576101008083540402835291602001916108b2565b820191906000526020600020905b81548152906001019060200180831161089557829003601f168201915b505050505090806002015490806003015490806004018054600181600116156101000203166002900480601f01602080910402602001604051908101604052809291908181526020018280546001816001161561010002031660029004801561095c5780601f106109315761010080835404028352916020019161095c565b820191906000526020600020905b81548152906001019060200180831161093f57829003601f168201915b5050505050905085565b600460009054906101000a900473ffffffffffffffffffffffffffffffffffffffff1673ffffffffffffffffffffffffffffffffffffffff163373ffffffffffffffffffffffffffffffffffffffff16146109c057600080fd5b7fdc42e03e4081dfcf22be9c8c3dec0a47c041842fc4ec0e56765fe334e3b9a82d60405160405180910390a1565b600460009054906101000a900473ffffffffffffffffffffffffffffffffffffffff1681565b60038054600181600116156101000203166002900480601f016020809104026020016040519081016040528092919081815260200182805460018160011615610100020316600290048015610aaa5780601f10610a7f57610100808354040283529160200191610aaa565b820191906000526020600020905b815481529060010190602001808311610a8d57829003601f168201915b505050505081565b60058054600181600116156101000203166002900480601f016020809104026020016040519081016040528092919081815260200182805460018160011615610100020316600290048015610b485780601f10610b1d57610100808354040283529160200191610b48565b820191906000526020600020905b815481529060010190602001808311610b2b57829003601f168201915b505050505081565b60006020528060005260406000206000915054906101000a900460ff1681565b6000600254905090565b600460009054906101000a900473ffffffffffffffffffffffffffffffffffffffff1673ffffffffffffffffffffffffffffffffffffffff163373ffffffffffffffffffffffffffffffffffffffff1614610bd457600080fd5b6002600081548092919060010191905055506040518060a0016040528060025481526020018481526020016000815260200183815260200182815250600160006002548152602001908152602001600020600082015181600001556020820151816001019080519060200190610c4b929190610d05565b5060408201518160020155606082015181600301556080820151816004019080519060200190610c7c929190610d05565b50905050505050565b828054600181600116156101000203166002900490600052602060002090601f016020900481019282601f10610cc657805160ff1916838001178555610cf4565b82800160010185558215610cf4579182015b82811115610cf3578251825591602001919060010190610cd8565b5b509050610d019190610d85565b5090565b828054600181600116156101000203166002900490600052602060002090601f016020900481019282601f10610d4657805160ff1916838001178555610d74565b82800160010185558215610d74579182015b82811115610d73578251825591602001919060010190610d58565b5b509050610d819190610d85565b5090565b610da791905b80821115610da3576000816000905550600101610d8b565b5090565b9056fea265627a7a72315820426a8a188754c5ec6d3cdbf97b805096296b1d96c639f1ade13f256a72f2066064736f6c63430005100032",
  "source": "pragma solidity ^0.5.16;\n\ncontract Election {\n    // Model a Candidate\n    struct Candidate {\n        uint id;\n        string name;\n        uint voteCount;\n        uint age;\n        string position;\n    }\n\n    // Store accounts that have voted\n    mapping(address => bool) public voters;\n    // Store Candidates\n    // Fetch Candidate\n    mapping(uint => Candidate) public candidates;\n    // Store Candidates Count\n    uint public candidatesCount;\n\n    string public electionInfo;\n\n    // just added these\n    address public accountOwner;\n    string public electionName;\n\n    // voted event\n    event votedEvent (\n        uint indexed _candidateId\n    );\n\n    // election ended event\n    event electionEvent();\n\n    // constructor for when you make an election\n    constructor(string memory _name) public {\n        //addCandidate(\"Candidate 1\", 22, \"pres\");\n        //addCandidate(\"Candidate 2\", 23, \"vp\");\n        accountOwner = msg.sender;\n        electionName = _name;\n    }\n\n    // makes sure that the person who calls the function is the account owner\n    modifier accountOwnerOnly() {\n        require(msg.sender == accountOwner);\n        _;\n    }\n\n    // add a candidate\n    function addCandidate (string memory _name, uint _age, string memory _position) accountOwnerOnly public {\n        candidatesCount ++;\n        candidates[candidatesCount] = Candidate(candidatesCount, _name, 0, _age, _position);\n    }\n\n    // add election info\n    function addInfo (string memory _info) accountOwnerOnly public {\n        electionInfo = _info;\n    }\n\n    // returns number of candidatess\n    function getNumCandidate() public view returns (uint) {\n        return candidatesCount;\n    }\n\n    function vote (uint _candidateId) public {\n        // require that they haven't voted before\n        require(!voters[msg.sender]);\n\n        // require that account owner can not vote\n        require(msg.sender != accountOwner);\n\n        // require a valid candidate\n        require(_candidateId > 0 && _candidateId <= candidatesCount);\n\n        // record that voter has voted\n        voters[msg.sender] = true;\n\n        // update candidate vote Count\n        candidates[_candidateId].voteCount ++;\n\n        // trigger voted event\n        emit votedEvent(_candidateId);\n    }\n\n    function endElection() accountOwnerOnly public {\n        emit electionEvent();\n        //selfdestruct(msg.sender);\n    }\n}",
  "sourcePath": "/Users/taylorboyd/election/contracts/Election.sol",
  "compiler": {
    "name": "solc",
    "version": "0.5.16+commit.9c3226ce.Emscripten.clang"
  },
  "schemaVersion": "3.4.3",
  "updatedAt": "2021-12-08T05:53:15.230Z",
  "networkType": "ethereum",
  "devdoc": {
    "methods": {}
  },
  "userdoc": {
    "methods": {}
  }
}